:02000000092ACB
:10000600FF30831286000630CB001330CC00AD30B3
:10001600CD00CD0B0C28CC0B0C28CB0B0C280000EC
:0400260000000800CE
:10002A00831286010630CB001330CC00AD30CD00F0
:10003A00CD0B1D28CC0B1D28CB0B1D280000000062
:02004A000800AC
:0E004C00831686011F3085008312860108008E
:10005A000320152003201520032015200320152036
:10006A000320152003201520032015200320152026
:0A007A0003201520032015200800C4
:10008400F030831286000630CB001330CC00AD3044
:10009400CD00CD0B4B28CC0B4B28CB0B4B280000B1
:1000A400000086010630CB001330CC00AD30CD000B
:1000B400CD0B5A28CC0B5A28CB0B5A280000000031
:0200C400080032
:1000C6000F30831286000630CB001330CC00AD30E3
:1000D600CD00CD0B6C28CC0B6C28CB0B6C2800000C
:1000E600000086010630CB001330CC00AD30CD00C9
:1000F600CD0B7B28CC0B7B28CB0B7B28000000008C
:020106000800EF
:100108000130831286000630CB001330CC00AD30AE
:10011800CD00CD0B8D28CC0B8D28CB0B8D28000066
:100128000000023086000630CB001330CC00AD3022
:10013800CD00CD0B9D28CC0B9D28CB0B9D28000016
:100148000000043086000630CB001330CC00AD3000
:10015800CD00CD0BAD28CC0BAD28CB0BAD280000C6
:100168000000083086000630CB001330CC00AD30DC
:10017800CD00CD0BBD28CC0BBD28CB0BBD28000076
:100188000000103086000630CB001330CC00AD30B4
:10019800CD00CD0BCD28CC0BCD28CB0BCD28000026
:1001A8000000203086000630CB001330CC00AD3084
:1001B800CD00CD0BDD28CC0BDD28CB0BDD280000D6
:1001C8000000403086000630CB001330CC00AD3044
:1001D800CD00CD0BED28CC0BED28CB0BED28000086
:1001E8000000803086000630CB001330CC00AD30E4
:1001F800CD00CD0BFD28CC0BFD28CB0BFD28000036
:10020800000086010630CB001330CC00AD30CD00A5
:10021800CD0B0C29CC0B0C29CB0B0C2900000000B2
:020228000800CC
:10022A00831286010630CB001330CC00AD30CD00EE
:10023A00CD0B1D29CC0B1D29CB0B1D29000000005D
:10024A00803086000630CB001330CC00AD30CD00B4
:10025A00CD0B2D29CC0B2D29CB0B2D29000000000D
:10026A00403086000630CB001330CC00AD30CD00D4
:10027A00CD0B3D29CC0B3D29CB0B3D2900000000BD
:10028A00203086000630CB001330CC00AD30CD00D4
:10029A00CD0B4D29CC0B4D29CB0B4D29000000006D
:1002AA00103086000630CB001330CC00AD30CD00C4
:1002BA00CD0B5D29CC0B5D29CB0B5D29000000001D
:1002CA00083086000630CB001330CC00AD30CD00AC
:1002DA00CD0B6D29CC0B6D29CB0B6D2900000000CD
:1002EA00043086000630CB001330CC00AD30CD0090
:1002FA00CD0B7D29CC0B7D29CB0B7D29000000007D
:10030A00023086000630CB001330CC00AD30CD0071
:10031A00CD0B8D29CC0B8D29CB0B8D29000000002C
:10032A00013086000630CB001330CC00AD30CD0052
:10033A00CD0B9D29CC0B9D29CB0B9D2900000000DC
:02034A000800A9
:10034C00AA30831286000630CB001330CC00AD30BF
:10035C00CD00CD0BAF29CC0BAF29CB0BAF290000B7
:10036C00000086010630CB001330CC00AD30CD0040
:10037C00CD0BBE29CC0BBE29CB0BBE290000000037
:02038C00080067
:10038E005530831286000630CB001330CC00AD30D2
:10039E00CD00CD0BD029CC0BD029CB0BD029000012
:1003AE00000086010630CB001330CC00AD30CD00FE
:1003BE00CD0BDF29CC0BDF29CB0BDF290000000092
:0203CE00080025
:1003D00026202D2084208420842084208420152120
:1003E0001521152115211521A621A621A621A62119
:1003F000A621C721C721C721C721C72163206320A8
:100400006320632063204220422042204220422079
:020410000800E2
:06041200E821092A0B2A73
:02400E00FA3F77
:00000001FF
