:02000000D32803
:10000600831286010630CB001330CC00AD30CD0014
:10001600CD0B0B28CC0B0B28CB0B0B2800000000BC
:020026000800D0
:10002800FF30831286000630CB001330CC00AD3091
:10003800CD00CD0B1D28CC0B1D28CB0B1D28000097
:0400480000000800AC
:10004C001420032014200320142003201420032048
:10005C001420032014200320142003201420032038
:0A006C0014200320142003200800D4
:0E007600831686011F30850083128601080064
:100084000130831286000630CB001330CC00AD3033
:10009400CD00CD0B4B28CC0B4B28CB0B4B280000B1
:1000A4000000023086000630CB001330CC00AD30A7
:1000B400CD00CD0B5B28CC0B5B28CB0B5B28000061
:1000C4000000043086000630CB001330CC00AD3085
:1000D400CD00CD0B6B28CC0B6B28CB0B6B28000011
:1000E4000000083086000630CB001330CC00AD3061
:1000F400CD00CD0B7B28CC0B7B28CB0B7B280000C1
:100104000000103086000630CB001330CC00AD3038
:10011400CD00CD0B8B28CC0B8B28CB0B8B28000070
:100124000000203086000630CB001330CC00AD3008
:10013400CD00CD0B9B28CC0B9B28CB0B9B28000020
:100144000000403086000630CB001330CC00AD30C8
:10015400CD00CD0BAB28CC0BAB28CB0BAB280000D0
:100164000000803086000630CB001330CC00AD3068
:10017400CD00CD0BBB28CC0BBB28CB0BBB28000080
:10018400000086010630CB001330CC00AD30CD002A
:10019400CD0BCA28CC0BCA28CB0BCA280000000000
:0201A400080051
:0801A6003B2026204220D62850
:02400E00FA3F77
:00000001FF
