:02000000DB2BF8
:100006008312A103A1032108003C03180F28A103B2
:1000160000000000000006280000000000000000AC
:0400260000000800CE
:10002A0083120313C801C9011030CC00410DC80D59
:10003A00C90D4408C8024508031C450FC902031824
:10004A002D284408C80745080318450FC907031097
:0A005A00C00DC10DCC0B1B280800DF
:1000640083120313CB01CA01C901C8018C01430DDA
:10007400C80D4408C8024508031C450FC9024608B8
:10008400031C460FCA024708031C470FCB0200019A
:10009400031C01308C02C30D0730CC00430DC80D86
:1000A400C90DCA0DCB0D8C0D4408431C6B28C80226
:1000B4004508031C450FC9024608031C460FCA0223
:1000C4004708031C470FCB020001031C01308C02BC
:1000D4007C28C80745080318450FC90746080318B4
:1000E400460FCA0747080318470FCB070001031838
:1000F40001308C07C30DCC0B5028420DC80DC90D1F
:10010400CA0DCB0D8C0D4408431C9A28C80245081F
:10011400031C450FC9024608031C460FCA024708C0
:10012400031C470FCB020001031C01308C02AB28D7
:10013400C80745080318450FC90746080318460FA2
:10014400CA0747080318470FCB07000103180130FB
:100154008C07C20D0730CC00420DC80DC90DCA0D65
:10016400CB0D8C0D4408421CC928C8024508031C49
:10017400450FC9024608031C460FCA024708031C60
:10018400470FCB020001031C01308C02DA28C80798
:1001940045080318450FC90746080318460FCA0740
:1001A40047080318470FCB070001031801308C07D9
:1001B400C20DCC0BAE28410DC80DC90DCA0DCB0D17
:1001C4008C0D4408421CF828C8024508031C450F3E
:1001D400C9024608031C460FCA024708031C470FFE
:1001E400CB020001031C01308C020929C807450811
:1001F4000318450FC90746080318460FCA074708DE
:100204000318470FCB070001031801308C07C10DF9
:100214000730CC00410DC80DC90DCA0DCB0D8C0D96
:100224004408411C2729C8024508031C450FC9027C
:100234004608031C460FCA024708031C470FCB029B
:100244000001031C01308C023829C8074508031833
:10025400450FC90746080318460FCA07470803187D
:10026400470FCB070001031801308C07C10DCC0BDD
:100274000C29400DC80DC90DCA0DCB0D8C0D4408B9
:10028400411C5629C8024508031C450FC9024608EB
:10029400031C460FCA024708031C470FCB02000188
:1002A400031C01308C026729C80745080318450F51
:1002B400C90746080318460FCA0747080318470F1B
:1002C400CB070001031801308C07C00D0730CC00A8
:1002D400400DC80DC90DCA0DCB0D8C0D4408401C32
:1002E4008529C8024508031C450FC9024608031C9A
:1002F400460FCA024708031C470FCB020001031C28
:1003040001308C029629C80745080318450FC90710
:1003140046080318460FCA0747080318470FCB07B8
:100324000001031801308C07C00DCC0B6A2940185A
:10033400A9294408C80745080318450FC9074608F2
:100344000318460FCA0747080318470FCB070800CE
:10035400831203132230CC00C801C901CA01CB01A6
:10036400CC030319E0290310CB0CCA0CC90CC80C2C
:10037400C30CC20CC10CC00C031CB229CC0303195E
:10038400D2294408C80745080318450FC907460879
:100394000318460FCA0747080318470FCB07B629A7
:1003A4004408C80745080318450FC9074608031839
:0E03B400460FCA0747080318470FCB0708007B
:1003C20040308312C0001F30C100C201C3010800C7
:1003D20002308312CC004930CD00CD0BEE29CC0B7C
:0803E200EE29000000000800F4
:1003EA0083129A011608C1000130C000410803199E
:1003FA00022AC00D4010FF3EFC294008990015084A
:10040A00840040080005C10041080130031D003086
:10041A00C0001808C00603192A2A1708003C031846
:10042A001A2AE921E9219703122A150884001908D2
:10043A000005C10041080130031D0030C000180842
:10044A00C00603192A2AFF309A001A08C0000800B9
:10045A00462A3F3083128500762A831206308600A8
:10046A00762A83125B308600762A83124F30860002
:10047A00762A831266308600762A83126D308600C9
:10048A00762A00301606031D4C2A00301506031979
:10049A002E2A00301606031D542A013015060319A8
:1004AA00322A00301606031D5C2A0230150603198B
:1004BA00362A00301606031D642A0330150603196E
:1004CA003A2A00301606031D6C2A04301506031951
:1004DA003E2A00301606031D742A05301506031934
:0404EA00422A08009A
:1004EE00E121E830C4000330C500C601C701AA21CE
:1004FE0040089D0041089E0042089F004308A0004E
:10050E001508C4001608C500C601C70132204008F0
:10051E009D0041089E0042089F004308A00040082D
:10052E00C5004108C6004208C7004308C800C80CF1
:10053E00C70CC60CC50CC813C80CC70CC60CC50C12
:10054E00C8134508C0004608C1004708C200480845
:10055E00C300C30CC20CC10CC00CC31340089900DD
:10056E0041089A00E1211708C4001808C500C60109
:10057E00C701AA211908C9001A08CA00CB01CC016B
:10058E000330C8004908C4004A08C5004B08C6001D
:10059E004C08C70048080319DB2AC40DC50DC60D4B
:1005AE00C70D4410FF3ED22A322040089D0041085C
:1005BE009E0042089F004308A0000A30C40000308D
:1005CE00C5001908C0001A08C1001520400899007E
:1005DE0041089A0000304102031DF72A0330400201
:1005EE000318FA2A472B0E0884002008003C031D2E
:1005FE000A2B1F08003C031D0A2B1E08003C031D7E
:10060E000A2B1D08003C0318452B0F0880041A08FE
:10061E000319212B9B019C0100301C02031D192B79
:10062E001A081B020318212BA10103209B0A031990
:10063E009C0A132B1908A1000320100880051A0824
:10064E000319392B9B019C0100301C02031D312B19
:10065E001A081B020318392BA10103209B0A031948
:10066E009C0A2B2B1908A100032001309D02031CAC
:10067E009E02031C9F02031CA002FC2A1008800588
:02068E00080062
:0C069000831212088A0011088200080082
:10069C00831213088E001408C1000130C0004108F9
:1006AC0003195C2BC00D4010FF3E562B40088F00E9
:1006BC00C009400890008030130784004008800572
:0806CC008413400880050800BA
:1006D4000530831295009601643097009801F52146
:1006E40040080319792B8D01950196012D220530BF
:1006F4008312950001309600643097009801F5212B
:1007040040080319952B80300D06C0008030053A4F
:1007140040020318952B8D0A0D0895000030951B97
:10072400FF3096002D22053083129500023096008A
:10073400643097009801F52140080319CE2B8030CE
:100744000D06C0008030003A4002031CCE2B0D0879
:10075400003A031DB62BF430950001309600F430B6
:1007640097000130980077220D0895000030951B02
:10077400FF3096002D220B308312CB002630CC00A4
:100784005D30CD00CD0BC42BCC0BC42BCB0BC42BB9
:0A079400000000008D03A12B0800F7
:10079E0048238A110A128000840A910A0319920AC8
:0807AE00C003031DCF2B08005E
:1007B60083128D01831686011F3085008312860100
:1007C60006309300073094004E236A23E82BEA2B69
:02400E00FA3F77
:00000001FF
