:0200000047288F
:1000060002308312CC004930CD00CD0B0828CC0B32
:080016000828000000000800AA
:10001E00831293010F08C1000130C000410803197B
:10002E001C28C00D4010FF3E1628400892000E08F6
:10003E00840040080005C10041080130031D003056
:10004E00C0001108C006031944281008003C03180C
:10005E0034280320032090032C280E088400120855
:10006E000005C10041080130031D0030C000110819
:10007E00C00603194428FF3093001308C00008007F
:10008E001F3083168500F0308600831286010530FE
:10009E008E008F0132309000013091000F20400809
:1000AE0003195B280130860005308E0001308F0069
:1000BE0032309000013091000F204008031969285A
:1000CE000230860005308E0002308F0032309000F4
:1000DE00013091000F204008031977280430860064
:1000EE0005308E0003308F003230900001309100C9
:1000FE000F204008031985280830860005308E0031
:10010E0004308F0032309000013091000F204008F3
:0A011E000319922886014E28932849
:02400E00FA3F77
:00000001FF
