:020000001A2BB9
:1000060083129E039E031E08003C03180F289E03BE
:1000160000000000000006280000000000000000AC
:0400260000000800CE
:10002A0083120313C801C9011030CC00410DC80D59
:10003A00C90D4408C8024508031C450FC902031824
:10004A002D284408C80745080318450FC907031097
:0A005A00C00DC10DCC0B1B280800DF
:1000640002308312CC004930CD00CD0B3728CC0BA5
:0800740037280000000008001D
:10007C00831203132230CC00C801C901CA01CB0181
:10008C00CC03031974280310CB0CCA0CC90CC80C74
:10009C00C30CC20CC10CC00C031C4628CC030319A6
:1000AC0066284408C80745080318450FC9074608C1
:1000BC000318460FCA0747080318470FCB074A28EF
:1000CC004408C80745080318450FC9074608031814
:0E00DC00460FCA0747080318470FCB07080056
:1000EA0040308312C0001F30C100C201C3010800A2
:1000FA0083120313CB01CA01C901C8018C01430D44
:10010A00C80D4408C8024508031C450FC902460821
:10011A00031C460FCA024708031C470FCB02000103
:10012A00031C01308C02C30D0730CC00430DC80DEF
:10013A00C90DCA0DCB0D8C0D4408431CB628C80244
:10014A004508031C450FC9024608031C460FCA028C
:10015A004708031C470FCB020001031C01308C0225
:10016A00C728C80745080318450FC90746080318D2
:10017A00460FCA0747080318470FCB0700010318A1
:10018A0001308C07C30DCC0B9B28420DC80DC90D3D
:10019A00CA0DCB0D8C0D4408431CE528C80245083E
:1001AA00031C450FC9024608031C460FCA0247082A
:1001BA00031C470FCB020001031C01308C02F628F6
:1001CA00C80745080318450FC90746080318460F0C
:1001DA00CA0747080318470FCB0700010318013065
:1001EA008C07C20D0730CC00420DC80DC90DCA0DCF
:1001FA00CB0D8C0D4408421C1429C8024508031C67
:10020A00450FC9024608031C460FCA024708031CC9
:10021A00470FCB020001031C01308C022529C807B5
:10022A0045080318450FC90746080318460FCA07A9
:10023A0047080318470FCB070001031801308C0742
:10024A00C20DCC0BF928410DC80DC90DCA0DCB0D35
:10025A008C0D4408421C4329C8024508031C450F5B
:10026A00C9024608031C460FCA024708031C470F67
:10027A00CB020001031C01308C025429C80745082F
:10028A000318450FC90746080318460FCA07470847
:10029A000318470FCB070001031801308C07C10D63
:1002AA000730CC00410DC80DC90DCA0DCB0D8C0D00
:1002BA004408411C7229C8024508031C450FC9029B
:1002CA004608031C460FCA024708031C470FCB0205
:1002DA000001031C01308C028329C8074508031852
:1002EA00450FC90746080318460FCA0747080318E7
:1002FA00470FCB070001031801308C07C10DCC0B47
:10030A005729400DC80DC90DCA0DCB0D8C0D4408D7
:10031A00411CA129C8024508031C450FC902460809
:10032A00031C460FCA024708031C470FCB020001F1
:10033A00031C01308C02B229C80745080318450F6F
:10034A00C90746080318460FCA0747080318470F84
:10035A00CB070001031801308C07C00D0730CC0011
:10036A00400DC80DC90DCA0DCB0D8C0D4408401C9B
:10037A00D029C8024508031C450FC9024608031CB8
:10038A00460FCA024708031C470FCB020001031C91
:10039A0001308C02E129C80745080318450FC9072F
:1003AA0046080318460FCA0747080318470FCB0722
:1003BA000001031801308C07C00DCC0BB529401879
:1003CA00F4294408C80745080318450FC907460811
:1003DA000318460FCA0747080318470FCB07080038
:1003EA00831212088F001308C1000130C0004108AF
:1003FA000319032AC00D4010FF3EFD2940088D0055
:10040A00C00940088E008030120784004008800529
:08041A0084134008800508006E
:100422007520E830C4000330C500C601C7013E2074
:1004320040089A0041089B0042089C0043089D0026
:100442001208C4001308C500C601C7017D20400878
:100452009A0041089B0042089C0043089D00400806
:10046200C5004108C6004208C7004308C800C80CBE
:10047200C70CC60CC50CC813C80CC70CC60CC50CDF
:10048200C8134508C0004608C1004708C200480812
:10049200C300C30CC20CC10CC00CC31340089600AD
:1004A2004108970075201408C4001508C500C6014C
:1004B200C7013E201608C9001708CA00CB01CC01AB
:1004C2000330C8004908C4004A08C5004B08C600EA
:1004D2004C08C70048080319752AC40DC50DC60D7E
:1004E200C70D4410FF3E6C2A7D2040089A00410847
:1004F2009B0042089C0043089D000A30C400003063
:10050200C5001608C0001708C10015204008960053
:100512004108970000304102031D912A0330400236
:100522000318942AE12A0F0884001D08003C031DC9
:10053200A42A1C08003C031DA42A1B08003C031D1E
:10054200A42A1A08003C0318DF2A0D0880041708A1
:100552000319BB2A9801990100301902031DB32A1D
:10056200170818020318BB2A9E010320980A0319D0
:10057200990AAD2A16089E0003200E088005170866
:100582000319D32A9801990100301902031DCB2ABD
:10059200170818020318D32A9E010320980A031988
:1005A200990AC52A16089E00032001309A02031CEC
:1005B2009B02031C9C02031C9D02962A0E088005C6
:0205C20008002F
:1005C400831297011308C1000130C00041080319C8
:1005D400EF2AC00D4010FF3EE92A40089600120899
:1005E400840040080005C10041080130031D0030AB
:1005F400C0001508C0060319172B1408003C031883
:10060400072B322032209403FF2A12088400160894
:100614000005C10041080130031D0030C000150869
:10062400C0060319172BFF3097001708C0000800F5
:100634001F3083168500F030860083128601053052
:10064400920093013230940001309500E222400878
:100654000319382B063092009301F521F4309200EF
:1006640001309300F430940095011122053092007A
:10067400013093003230940001309500E2224008AA
:100684000319512B0630920001309300F5215830A4
:10069400920002309300F430940095011122053049
:1006A4009200023093003230940001309500E2222F
:1006B400400803196A2B0630920002309300F5219A
:1006C400BC30920002309300F43094009501112262
:1006D40005309200033093003230940001309500CD
:1006E400E22240080319832B063092000330930062
:1006F400F5212030920003309300F43094009501EA
:1007040011220530920004309300323094000130FD
:100714009500E22240080319902B8601212B912B8E
:02400E00FA3F77
:00000001FF
