:020000000328D3
:100006001F30831685008601831286014130CC009D
:10001600EE30CD00CD0B0D28CC0B0D2800000130A5
:1000260086004130CC00EE30CD00CD0B1828CC0B2D
:1000360018280000033086004130CC00EE30CD0099
:10004600CD0B2328CC0B2328000007308600413037
:10005600CC00EE30CD00CD0B2E28CC0B2E28000088
:100066000F3086004130CC00EE30CD00CD0B392864
:10007600CC0B392800001F3086004130CC00EE3012
:10008600CD00CD0B4428CC0B442800003F30860021
:100096004130CC00EE30CD00CD0B4F28CC0B4F2895
:1000A60000007F3086004130CC00EE30CD00CD0B15
:1000B6005A28CC0B5A280000FF3086004130CC006D
:1000C600EE30CD00CD0B6528CC0B652800007F30C7
:1000D60086004130CC00EE30CD00CD0B7028CC0B25
:1000E600702800003F3086004130CC00EE30CD0055
:1000F600CD0B7B28CC0B7B2800001F3086004130BF
:10010600CC00EE30CD00CD0B8628CC0B8628000027
:100116000F3086004130CC00EE30CD00CD0B91285B
:10012600CC0B91280000073086004130CC00EE3021
:10013600CD00CD0B9C28CC0B9C28000003308600FC
:100146004130CC00EE30CD00CD0BA728CC0BA72834
:100156000000013086004130CC00EE30CD00CD0BE2
:0C016600B228CC0BB22800000728B828F3
:02400E00FA3F77
:00000001FF
