:02000000E128F5
:10000600831206148230CC00DD30CD00CD0B0928DA
:10001600CC0B09280000000086148230CC00DD30AD
:10002600CD00CD0B1428CC0B1428000000000615BB
:100036008230CC00DD30CD00CD0B1F28CC0B1F2825
:100046000000000086158230CC00DD30CD00CD0BDF
:100056002A28CC0B2A280000000006168230CC0085
:10006600DD30CD00CD0B3528CC0B35280000000047
:1000760086168230CC00DD30CD00CD0B4028CC0B6F
:1000860040280000000006178230CC00DD30CD008D
:10009600CD0B4B28CC0B4B28000000008617823076
:1000A600CC00DD30CD00CD0B5628CC0B56280000F9
:0400B600000008003E
:1000BA001F30831685008601831286018230CC00A8
:1000CA00DD30CD00CD0B6728CC0B6728000000007F
:0200DA0008001C
:1000DC00831206108230CC00DD30CD00CD0B74289D
:1000EC00CC0B74280000000086108230CC00DD3070
:1000FC00CD00CD0B7F28CC0B7F2800000000061113
:10010C008230CC00DD30CD00CD0B8A28CC0B8A2878
:10011C000000000086118230CC00DD30CD00CD0B0C
:10012C009528CC0B95280000000006128230CC00DC
:10013C00DD30CD00CD0BA028CC0BA028000000009A
:10014C0086128230CC00DD30CD00CD0BAB28CC0B31
:10015C00AB280000000006138230CC00DD30CD004F
:10016C00CD0BB628CC0BB6280000000086138230CD
:10017C00CC00DD30CD00CD0BC128CC0BC12800004C
:04018C000000080067
:10019000FF30831286008230CC00DD30CD00CD0BE5
:1001A000CF28CC0BCF280000000086018230CC0085
:1001B000DD30CD00CD0BDA28CC0BDA2800000000B2
:0201C000080035
:0E01C2005D2003206E20C820C820E228E72818
:02400E00FA3F77
:00000001FF
